:020000041000EA
:1000000000B5324B212058609868022188439860DF
:10001000D860186158612E4B002199600221596106
:100020000121F02299502B49196001219960352056
:1000300000F044F80222904214D00621196600F024
:1000400034F8196E01211966002018661A6600F04E
:100050002CF8196E196E196E052000F02FF8012189
:100060000842F9D1002199601B49196000215960AB
:100070001A491B48016001219960EB211966A021F2
:10008000196600F012F800219960164914480160C1
:100090000121996001BC002800D000471248134993
:1000A000086003C880F30888084703B5996A0420EC
:1000B0000142FBD001200142F8D103BD02B5186610
:1000C0001866FFF7F2FF186E186E02BD00000240BE
:1000D000000000180000070000035F00212200005C
:1000E000F4000018222000A00001001008ED00E03C
:1000F00000000000000000000000000074B24E7A12
:1001000000200420F7010010C3010010C5010010F9
:10011000C1010010C1010010C1010010C101001097
:10012000C1010010C1010010C1010010C701001081
:10013000C1010010C1010010C9010010CB01001065
:10014000CD010010CD010010CD010010CD01001037
:10015000CD010010CD010010CD010010CD01001027
:10016000CD010010CD010010CD010010CD01001017
:10017000CD010010CD010010CD010010CD01001007
:10018000CD010010CD010010CD010010CD010010F7
:10019000CD010010CD010010CD010010CD010010E7
:1001A000CD010010CD010010CD010010CD010010D7
:1001B000CD010010CD010010CD010010CD010010C7
:1001C00000BE00BE00BE00BE00BE00BE00F04BF888
:1001D000103800BEF2EB887184830010A8830010F1
:1001E0003402001090A31AE700202149086006C8D5
:1001F00081F3088810471F48006800282FD10DA4FC
:100200000ECC002902D000F012F8F9E71A491B4A77
:10021000002000E001C19142FCD1194988471949E9
:1002200088471949884700BEFDE701C901C29A42C3
:10023000FBD37047A8830010C000002000050020F9
:10024000E88700100000042000000420E887001068
:1002500000100420001004200000000070470B482C
:1002600002F0B0FE0047EFF30580C0B27047000017
:1002700008ED00E0000000D0000500207C12002006
:100280007D1500105D030010391500105756000051
:1002900006005250ABB360531C7C00100600525055
:1002A000861C03022C7C0010060052505422A29D92
:1002B0003C7C001005005250DE65F468E8870010B1
:1002C000F8B5C0460448054B10B5834203D0044B33
:1002D000002B00D0984710BD00050020000500202D
:1002E0000000000006480749091A8910CB0F591869
:1002F00010B5491003D0044B002B00D0984710BD17
:1003000000050020000500200000000010B5074C8B
:100310002378002B09D1FFF7D5FF054B002B02D026
:10032000044800E000BF0123237010BD0806002030
:1003300000000000786D0010054B10B5002B03D0B5
:100340000449054800E000BFFFF7CCFF10BDC046E0
:10035000000000000C060020786D001010B503F0BE
:10036000DDFE024803F0CEFEFBE7C046786D0010CC
:10037000EFF3108072B6034B1B68002BFBD0BFF36A
:100380005F8F70472C0100D0BFF35F8F024B0022BC
:100390001A6080F3108870472C0100D070B50500FA
:1003A0000E001400FFF7E4FFF208AA1815780721E1
:1003B000314001238B402B4205D1DBB22B4313701C
:1003C000FFF7E2FF70BD3100200001F053F9F0B5F6
:1003D00083B00700019114001E00FFF7C9FFB4426B
:1003E0000ED8E208BA1815780721214001238B4066
:1003F0002B4201D00134F2E7DBB22B43137001E052
:1004000001246442FFF7C0FF002C02DB200003B090
:10041000F0BD019B002BF9D0089801F02BF90000EA
:10042000034B1B6802201840431E9841C0B270471E
:1004300000C0064000231F2B08D8054A9A189200D6
:10044000BFF35F8F002111600133F4E77047C046AE
:1004500040000034054A1078431CDBB21370172BA0
:1004600002D9130010221A707047C04608040020F9
:1004700000B583B00100044B00931F2318220348EA
:10048000FFF7A5FF03B000BD8C6D0010C80A002067
:100490000A4B1A68EFF3108172B61368002BFCD078
:1004A000BFF35F8F054B1B68BFF35F8F00221A609D
:1004B00081F3108840BF002000217047880F002082
:1004C00070B505000C00080000F0F6FC200000F0FC
:1004D000C7FD0849200000F007FDFFF7BBFF064BF2
:1004E0009C466044800068602C75A400034BE55076
:1004F00070BDC046E1070010400000346C0F0020C2
:1005000010B5002922D003681B7B99421ED8174BD7
:100510009C466144090183689C4661440C684968B3
:10052000002A19D003681B7B9A4215D883680F48AC
:100530008446624412019A18106853680200012030
:100540008B4201D80ED00020C0B210BD084B094A22
:100550003B21094800F0F4FF054B064A3B210648C1
:1005600000F0EEFFA242EFD8EDE7C046FFFFFF0F1D
:10057000C46F0010006E0010D070001010B500297C
:100580001ED0037B99421BD84B005B18033B0468C9
:10059000A4466344002919D0002A1DD0914221D0DD
:1005A000002A25D0047BA24222D80468500080187B
:1005B000033820188170197800291FD11A7010BDD6
:1005C000104B114A6921114800F0BAFF104B114A33
:1005D00070310E4800F0B4FF0F4B0E4A71210B48EA
:1005E00000F0AEFF0D4B0B4A7221084800F0A8FF47
:1005F000044B054A6921054800F0A2FF41701A70BA
:10060000DDE7C0461C700010C06D0010387000108F
:100610008C700010CC6D001098700010A470001049
:1006200070B506000D001400002914D0002A14D063
:10063000806873689847002806D02200290030009F
:10064000FFF79CFF280007E02A0021003000FFF799
:1006500095FF200000E0100070BD0800FCE70000DE
:1006600070B5CE4600B583B00500009201930AAB89
:100670001C780BAB1B789946002C28D003685A7B5A
:10068000944209D10123002B1BD1002C3DD1200025
:1006900003B004BC914670BD002C0CD01A7B944270
:1006A00009D81A6863001B19033BD3189B78002BE9
:1006B000E9D00123E7E73F4B3F4A69213F4800F07B
:1006C0003FFF3F4B3F4A65213F4800F039FF036839
:1006D0009C7B002CD9D012D01A7B94420FD8620098
:1006E0001219033A19688C466244517899730029AB
:1006F00000D1D9730023937053701370C5E72D4B4D
:100700002D4A69212D4800F01BFF002C3BD02B689F
:100710001B7B9C4237D82D4BE3181B01AA689446DB
:1007200063440099019A19605A60089A9A60099A7C
:10073000DA602E68002C2CD031D0337B9C422ED82E
:1007400063001B19033B32689446634400229A708D
:100750005A701A70717B22003000FFF761FF7073CE
:10076000844200D093E7287D009A019B00F004FCAE
:10077000061E02D04B46002B17D00C9B002B00D13D
:1007800085E71E7083E7124B124A3B210E4800F0AA
:10079000D7FE114B114AA621084800F0D1FE054BA7
:1007A000054A6921054800F0CBFE2868210000F0C9
:1007B00045FEE2E71C700010C06D0010387000109C
:1007C000846E0010386E0010D0700010FFFFFF0F15
:1007D000C46F0010006E0010CC700010E06D0010AF
:1007E000F0B5DE4657464E464546E0B58BB009901B
:1007F000002308938200B24BD7583D0052E0B14B22
:10080000B14A3F21B14800F09BFEB14BB14A3B21B8
:10081000B14800F095FE002B01D1002A68D10021DB
:10082000604600F001FEA04219D13268736806925A
:100830000793B3689846F3689A464346002B14D052
:10084000002C18D02B681B7B9C4214D8631EEA68CE
:10085000D35C08931B0218432861002015E09F4BCE
:100860009F4A8C219C4800F06BFE9E4B9C4A902135
:10087000994800F065FE964B9B4A4021964800F04F
:100880005FFE00239A46984600206B68BFF35F8F97
:1008900000221A6087F310884346002B31D10028CC
:1008A00000D105E100F014FB0029A8DB002300249F
:1008B000069307946A68EFF3108772B61368002BEB
:1008C000FCD0BFF35F8F2B689C465C7B002CD8D09C
:1008D0009BD01B7B9C4298D8844BE6183601AB68B2
:1008E0009846464432687368121A8B41002B92DD99
:1008F00032687368099800F03FFB00239A469846D7
:10090000C3E7089B1B022343994651461800C04782
:1009100006000F006A68EFF3108B72B61368002BA5
:10092000FCD0BFF35F8F002F26DB002F52DD2B6939
:10093000002B53D04B4574D100F0CAFA02000B1EB5
:1009400075DB0100180092197B41984202D804D14E
:10095000914202D901225242D317002B6DDB0021B4
:100960000491013103910294514601914146009155
:100970002800FFF775FE4BE02B69002BD5D04B45C7
:100980001CD1069A079B10001900921BBB4199428B
:1009900002D804D1904202D901225242D317002B2F
:1009A00012DB00210491013103910294514601911F
:1009B000414600912800FFF753FE29E04C4B484A7E
:1009C0009F21454800F0BCFD3E4B3F4A3F213F4838
:1009D00000F0B6FD002F01D1002EA8D12A68002C0E
:1009E00047D0537B9C422ED10123002B41D1D37B96
:1009F000002B44D1D473002C54D02B681B7B9C4219
:100A000050D8013CEB689C46644423780133237042
:100A100000232B616A68BFF35F8F13608BF310882C
:100A200040E7334B2E4AA2212B4800F089FD254B8D
:100A3000254A3F21254800F083FD224B224A3F21D1
:100A4000224800F07DFD002C0DD0137B9C420AD87B
:100A500063001B19033B11688C4663449B78002B91
:100A6000C3D00123C1E7234B234A6921234800F067
:100A700067FD234B234AF721204800F061FD002B3E
:100A80000AD0117B8B4207D85900CB18033B116861
:100A90008C4663445C70ADE7164B174A69211748D2
:100AA00000F04EFD0A4B104A40210B4800F048FD73
:100AB0000BB03CBC90469946A246AB46F0BDC04642
:100AC0006C0F0020AC6E0010A86D0010C86E0010F6
:100AD000C46F0010006E0010D0700010186F00106E
:100AE000506E0010306F00100C6E0010FFFFFF0FF3
:100AF0003C6F00101C700010C06D001038700010AA
:100B0000786F0010F06D001010B50A4B5B68002B79
:100B100004D00A21084800F0C3FA10BD054C230098
:100B2000064A1021206800F09DFB03212000FFF7FA
:100B3000C7FCEEE70C040020880F00200105001020
:100B400010B5064B5B68002B01D0044810BD044B68
:100B5000044A5C21044800F0F3FCC0460C04002069
:100B6000F86F0010206E0010D0700010F0B5D6465F
:100B70004F464646C0B588B0804616001F00109B01
:100B8000994612AB1B789A461F236B4400221A70B9
:100B900032E0002809D042461268127B904204D805
:100BA000421E4146C9688A5C42E03F4B3F4A4021B1
:100BB0003F4800F0C5FC0020002B6DD05346002BB1
:100BC0006AD01199C84704000D0003000B4369D097
:100BD00000293FDB00F07CF900294FDB24184D4150
:100BE000A94202D804D1A04202D901246442E517E7
:100BF000002D49DB26002F0043465A68EFF310848E
:100C000072B61368002BFCD0BFF35F8F1F236B44B9
:100C10000493002303930293119B01934B4600938B
:100C200032003B004046FFF71BFD031EB1D102001E
:100C300041464968BFF35F8F00250D6084F310883B
:100C4000002B27D01F236B441B78002BB3D112023B
:100C50001043B1E732003B00361BAF41BB4202D824
:100C600004D1B24202D901267642F717002FC3DA27
:100C7000104B114A3F21114800F062FC0D4B0E4A07
:100C80003F210E4800F05CFC0A4B0B4A3F210B4809
:100C900000F056FC0120404208B01CBC904699462A
:100CA000A246F0BD0020F7E7C46F00100C6E0010E4
:100CB000D0700010AC6E0010A86D0010C86E00104F
:100CC00070B504004268EFF3108572B61368002B0C
:100CD000FCD0BFF35F8FCAB22668737B9A421BD1E8
:100CE000012000284AD023698B422DD0090AC9B2BD
:100CF000002A30D023681B7B9A422CD8531EE06810
:100D0000C35C8B422DD000206368BFF35F8F00224D
:100D10001A6085F3108870BD002A0DD0337B9A428B
:100D20000AD853009B18033B3068844663449B7881
:100D3000002B07D10020D4E7134B144A6921144833
:100D400000F0FEFB0120CCE78521124B124A49003E
:100D5000124800F0F5FB124B124A40210F4800F0F8
:100D6000EFFB1100300000F069FB0028CCD112210C
:100D70000D4B094AFF31094800F0E2FB23698B4221
:100D8000C2D100232361BFE71C700010C06D0010AA
:100D9000387000109C6F00106C6E0010D070001046
:100DA000C46F00100C6E0010C06F001070B584B0DE
:100DB00005000C00FFF7C4FE002302930193194BBA
:100DC00000932A002300FFF7D1FE061E12DC164B0B
:100DD0005B6A9C4209D8144A926AAA4208D29C4291
:100DE00001D0012002E0002000E0002004B070BD2E
:100DF0000120FBE720BFFFF7A3FE3100FFF760FFF4
:100E0000094B5B6A9C4209D8074A926AAA4207D2F8
:100E10009C4201D00120E9E70020E7E70020E5E758
:100E20000120E3E7910400100040054070B5EFF3A6
:100E300005833F2018401038EFF3108472B6194B29
:100E40001B68002BFBD0BFF35F8F0123190081408B
:100E5000154A5163154A12781500C5402B4214D02B
:100E6000114B5D6A8300124E9B599D4206D383004D
:100E7000104D5B598A430D490A7007E00A4A031D69
:100E80009B0099589950002300E00023BFF35F8F27
:100E9000044A0021116084F31088002B00D0984789
:100EA00070BDC046280100D000400540BB0F0020A7
:100EB000940F0020B809002010B50100024A034831
:100EC000FFF76CFA10BDC04630710010B80F00205B
:100ED000044B596A00E01900024B986A5B6A994218
:100EE000F9D170470040054070B504000D00EFF3E4
:100EF000108672B61B4B1B68002BFBD0BFF35F8FB5
:100F0000002D1CD0200000F045FD174B98420BD05F
:100F10001900200000F046FD0121200000F02AFD0C
:100F20000123A340114A1360A400114BE550BFF305
:100F30005F8F0C4B00221A6086F3108870BDA200F0
:100F40000B4B0021D1500122A2400A490B78934358
:100F50000B700549200000F04FFD0021200000F03B
:100F600009FDE4E7280100D02D0E0010386005408F
:100F7000B8090020BB0F0020F0B5DE4600B584B0F4
:100F80000500140001921E000293FFF7A1FF0394D5
:100F90008E4202D84ED184424CD9EFF3108B72B6F8
:100FA000274B1B68002BFBD0BFF35F8F254A1778B8
:100FB0000124AC40E3B23B431370234B5C632A1D16
:100FC00092000199D150AA002049029850501B6A02
:100FD000234212D11C4B1B6C234208D00020BFF3CC
:100FE0005F8F174B00221A608BF3108823E0184B99
:100FF000184AC121184800F0A3FAFFF769FF8E4292
:1010000014D802D1039B834210D80E4B1B78BB42ED
:101010000ED00D4B1C625C631F222A4001239340BB
:101020000E4A1360074B1F700120D8E70020D6E757
:101030000120D4E7012004B004BC9346F0BDC046B3
:10104000280100D0BB0F002000400540940F002075
:1010500054710010147100107871001080E200E0EB
:1010600010B5EFF3108472B60A4B1B68002BFBD04F
:10107000BFF35F8F01238340074A136207490A7851
:101080009A430A70BFF35F8F024B00221A6084F309
:10109000108810BD280100D000400540BB0F002083
:1010A000024B9C4661448900016070474000003457
:1010B00010B50400FFF7CEF901002000FFF7F0FFA4
:1010C000FF232371BFF35F8F10BD10B50400FFF73E
:1010D000C1F901002000FFF7E3FFFF232371002384
:1010E0006371BFF35F8F10BD034B9C466144890061
:1010F0000160BFF35F8F70474000003410B50400FB
:101100000120FFF7B5F901002000FFF7EDFF10BD4A
:1011100010B500291ED0037B99421BD84B005B18E9
:10112000033B0468A4466344002919D0002A1DD05B
:10113000914221D0002A25D0047BA24222D8046803
:1011400050008018033820188170197800291FD1A9
:101150001A7010BD104B114A6921114800F0F0F9C6
:10116000104B114A70310E4800F0EAF90F4B0E4A4D
:1011700071210B4800F0E4F90D4B0B4A722108482D
:1011800000F0DEF9044B054A6921054800F0D8F962
:1011900041701A70DDE7C0461C7000109872001094
:1011A000387000108C700010A4720010987000103D
:1011B000A470001070B506000D001400002914D0B2
:1011C000002A14D0806873689847002806D022004F
:1011D00029003000FFF79CFF280007E02A002100CB
:1011E0003000FFF795FF200000E0100070BD080000
:1011F000FCE7000010B50023437301338373037BC6
:10120000C3730123027B9A4214D9002B0CD0027BBA
:10121000934209D85A00D218033A01688C466244B6
:101220000133DBB25370EDE70B4B0C4A69210C48DC
:1012300000F086F9002A09D0924207D801685300CD
:101240009A18033A8A180023537010BD024B034AC0
:101250006921034800F074F91C70001098720010A6
:101260003870001010B5017342608360FFF7C2FF51
:1012700010BD000070B50400002901D1080070BD48
:10128000002934D0037B994231D84B005B18033BD3
:101290000268944663445A78002AEFD02DD0037B2D
:1012A0009A422AD853009B18033B00688446634443
:1012B0005D7800205870002925D0237B994222D8E0
:1012C0004B005B18033B2068844663440020587041
:1012D0002000FFF76FFF060029002000FFF7CAFF7C
:1012E000020031002000FFF765FF0100C6E7094B4F
:1012F000094A6921094800F023F9064B064A692189
:10130000064800F01DF9034B034A6921034800F029
:1013100017F9C0461C700010987200103870001049
:1013200070B505000C001600002928D02DD0037BD5
:1013300099422AD84B005B18033B026894466344E9
:101340005A78002A27D19A78002A2AD11978FFF7EB
:1013500091FF0300002E03D0EA7B002A27D1EC7313
:10136000002B37D1002C49D02B7B9C4246D82A68D1
:1013700063001C19033C14190023637070BD224BD9
:10138000224A3821224800F0DBF8224B224A692108
:10139000224800F0D5F8224B1C4A3A211C4800F0A4
:1013A000CFF8204B194A3B21194800F0C9F8002A10
:1013B0000AD0297B8A4207D851008A18033A296843
:1013C0008C4662445470CAE7124B134A6921134891
:1013D00000F0B6F8002B0BD02A7B934208D84300CC
:1013E0001B18033B2A689446634400229A70B9E7AD
:1013F000084B094A6921094800F0A2F8054B064A42
:101400006921064800F09CF80C730010B8720010B7
:10141000147300101C7000109872001038700010C7
:10142000587300108073001070B504000A00457BEB
:101430002900FFF775FF6073280070BD10B5040028
:10144000002966D0437B8B420ED0002911D0037B4C
:1014500099420ED84B005B18033B0268D018837882
:10146000002B0CD1002055E00121FFF7DDFF01200A
:1014700050E0294B294A6921294800F061F8002BE6
:101480001FD0227B93421CD85A00D318033B2268FA
:10149000D21813788B421AD0002B1BD0227B934298
:1014A00018D85A00D318033B2268D21853788B42BD
:1014B00016D0002BF0D11B4B1B4A67211B4800F0B4
:1014C0003FF8154B154A6921154800F039F8437863
:1014D000137007E0104B114A6921114800F030F8F1
:1014E0004378537000238370437001222000FFF77C
:1014F00017FF0200617B814205D02000FFF75AFEF2
:101500006073012006E00A4B074A6D21074800F08E
:1015100017F8002010BDC0461C7000109872001013
:1015200038700010E4720010CC72001014730010B8
:10153000EC72001000BEFDE710B5FFF7FBFF0000E6
:1015400010B582B00C001900002A0CD0084B002AFC
:101550000BD00192009323000200064802F0D2FD56
:101560000120FFF7E7FF044BF1E7034AF1E7C0462C
:10157000A4730010B4730010B073001070B52B4B3F
:101580002B4A1A602B4B2C4A1A602C4B9A682A4B18
:101590009343FAD12A4C01E008CC9847294B9C424E
:1015A000FAD300F0FDF8234B274A1A60234B9B68BF
:1015B000DB43DB01FAD1254B40229A675A671A6751
:1015C000DA66234C09E0234B234A83212348FFF7A3
:1015D000B7FF2000FFF76CFD0834214B9C4209D275
:1015E0002368002BF5D0012BEDD12000FFF76DFD16
:1015F0000834F2E71B4CA1681B4DC022280002F002
:1016000039FCA560FEF72FFE002800D000BEFEF7D3
:1016100011FF00F03DFBFFF777FA144C01E008CC16
:101620009847134B9C42FAD370BDC04600E000407F
:10163000BFCDFBFE00F00040FE7F3C0000C000403C
:10164000E8040020F8040020FFFFFF0100F0014043
:10165000E004002008740010E473001028740010E7
:10166000E804002000ED00E000000020F804002065
:10167000000500200FB400B583B0084802F010FD4B
:10168000049B002B07D005A90191180002F018FD5A
:10169000034802F005FD0120FFF74CFFF473001032
:1016A00004740010F0B5DE46574680B583B00700DD
:1016B0000E0092460A9A93424CD3190E01911B02D6
:1016C000180000930A9A002301F012FD05007B0028
:1016D000DB199C002D4B9C4664446368834200D216
:1016E00060603B1FDBB29B46012B39D9C0239B01B5
:1016F0002343802212011A60BB00254A9958002911
:1017000005D0506901F0B2FC01300138FDD15346DB
:101710005B0122685340E0221340802252012243A1
:1017200013605B46012B26D980239B012343802233
:1017300012011A6065602A0000230098019901F0E7
:10174000D7FCBF00124BF850012003B00CBC9246EE
:101750009B46F0BD0F4B104A2D211048FFF7F0FEBD
:10176000012EC3D1C0239B01234303221A60A36827
:10177000DB07FCD5CBE72168714003230B401360E6
:10178000A3680122B2401A42FAD0CDE7008000409F
:10179000CC0A002084740010747400109874001037
:1017A00030B583B00C2000F00BFBFEF739FE0028AB
:1017B0000DD00023092B05D899002D4A2D488850BB
:1017C0000133F7E72A4B2C4A5A6203B030BD2B4B4A
:1017D00000229A6700F062FB294B01221A60274B16
:1017E0005B6C012BFBD1274B03221A60234B9B6BB5
:1017F000012BFBD1022400940533234A0121234805
:1018000000F054FA00940523214A0121214800F0F8
:101810004DFA214B0093002202210420FFF742FFE2
:101820001E4D00952B00002201210520FFF73AFFF5
:10183000104C00942300002200210720FFF732FF04
:1018400000942300002200210820FFF72BFF0A4B01
:1018500000932300002200210920FFF723FF0095B9
:101860002B00002200210620FFF71CFFADE7C04639
:10187000CC0A0020006CDC021BB700000080004096
:101880003CB0004030B00040002F6859008002405A
:1018900000389C1C00C00240001BB7004059730771
:1018A000074B9B68103080001950BFF35F8FBFF368
:1018B0005F8F044B0021196082F310887047C04687
:1018C00000ED00E0240100D010B5091A04394808E1
:1018D000090B05D14005400D044B184380B210BDE3
:1018E000034B044A8B210448FFF72AFE00E0FFFF68
:1018F000DC76001004750010EC76001010B5091AA3
:1019000004394C08090B08D14905490D064A114311
:101910000180064B2343438010BD054B054A9321AC
:101920000548FFF70DFEC04600F0FFFF00F8FFFF7F
:10193000DC76001010750010EC7600100123834057
:10194000034A10681840431E9841C0B27047C04611
:1019500000E100E0002904D0034B1860034B18603D
:101960007047034B1860FBE780E200E000E100E015
:1019700080E100E010B5012383401800FFF7EAFF83
:1019800010BD000001238340014A13607047C04628
:1019900000E200E0024B9B6810308000C0587047A6
:1019A00000ED00E070B504000D00EFF3108672B694
:1019B0000C4B1B68002BFBD0BFF35F8F2000FFF7A1
:1019C000E9FF094B984201D0A84205D13200290015
:1019D0002000FFF765FF70BD044B054A6E210548E6
:1019E000FFF7AEFD240100D0CD010010A476001059
:1019F000E8740010EC760010F0B5C64600B584B06F
:101A000001900D00EFF3108672B6574B1B68002B48
:101A1000FBD0BFF35F8F554B9A68019C1034A30035
:101A2000D758534B9F4207D0AF4200D19AE002975C
:101A3000504BFB1A2F2B08D9320039000198FFF7C1
:101A40002FFF04B004BC9046F0BD0198FFF776FF6D
:101A5000039000210198FFF78DFFBFF35F8FFEF722
:101A600002FC002801D084421AD10123029C9C432D
:101A7000414923003F4A9B1A5B415943090D4BB230
:101A80009C460023A168A94212D00622A256002A31
:101A90000DDB53009B189A002300364CA418F1E785
:101AA0001E21364B364AFF313648FFF749FD2300E9
:101AB000A94250D10622A2569046002A36DB520097
:101AC000424491002B4B5B189A68A260DA79E2716C
:101AD0009B795BB2A371002B12DABD200002A080BB
:101AE00043465B0043449A00224B9B18264A1178D8
:101AF00099714346137003990198FFF73BFF9BE7E9
:101B0000201D1C4A8B181A1D9B88D90A1C2907D135
:101B100059054915023149005118FFF7D5FEDEE796
:101B20001A4B1B4A99211748FFF70AFD00280DD1CF
:101B3000002B09D0FF229A71164A9A80124B1A780C
:101B4000A27162461A70D6E7094FF7E7201D1249C5
:101B5000FFF7D4FECFE7A921104B094A49000948F5
:101B6000FFF7EEFC024F67E7240100D000ED00E034
:101B7000CD01001034040020AAAA000078760010DD
:101B800038750010EC760010B90F00202C7600108C
:101B90002875001000BDFFFF6E0400209C76001029
:101BA000F8B50400012606432D4BF31A2F2B28D835
:101BB000FEF759FB00282BD0EFF3108772B6294BA4
:101BC0001B68002BFBD0BFF35F8F274D22002449F9
:101BD000521A524155432D0D6DB2244B9B68800023
:101BE0001B58B3421BD00023032B32D85A00D21803
:101BF00091001B4A5218927952B2AA421FD0013367
:101C0000F2E778211A4B1B4AFF311B48FFF798FC7B
:101C1000BD211A4B174A49001748FFF791FC134B97
:101C20009B68174A1A50174B1A78A2711D70BFF3A0
:101C30005F8F0C4B00221A6087F31088F8BD0849AB
:101C40005A00D618B0000818FF2686710E4B838004
:101C5000E9E78C210D4B074AFF310748FFF770FC7D
:101C600034040020240100D0AAAA000000ED00E006
:101C7000447600104C750010EC7600106C76001065
:101C8000CD010010B90F002000BDFFFFE47200106D
:101C90000022044B02E0044902C30132072AFAD9A8
:101CA0007047C04600E400E080808080F0B583B0DB
:101CB0000500019117001E000C2001F0D7F9040067
:101CC0004201121A93019B1ADB001B18990138007C
:101CD00001F0CCF90200103A98235B009A4232D806
:101CE000731E062B35D8089B013B062B31D8089B69
:101CF0009E4234D33F09A74237D33304089A1603D0
:101D00001E432B68002B36DB234B9D4240D08021A5
:101D10004901224B1960224B1960224A92680B003C
:101D20009343FAD1019B2B60A8602A1DC0239B011D
:101D3000134321221A602A68002AFCDAEE60082286
:101D40001A6003B0F0BD184B184A16211848FFF767
:101D5000F7FB184B154A19211548FFF7F1FB164BF5
:101D6000124A1F211248FFF7EBFB144B0F4A2221A6
:101D70000F48FFF7E5FB2A683F231340019A93427F
:101D8000C2D1AB681B051B0D8342BDD1EB68BBE71D
:101D900080218901BDE7C04600C0024000E000404C
:101DA00000F0004000C00040407700103477001081
:101DB0005C770010A4770010F0770010087800100E
:101DC00080239B000343014AD36270470080054093
:101DD000024B1A68024B5A607047C046640F0020DD
:101DE0000080054010B5164B8022D2051A60154BB5
:101DF000154A1A6000290AD0144BE022D2041A6056
:101E0000002809D1114B802212061A6010BD0C4B1C
:101E1000E022D2041A60F3E743011B1A9B00181852
:101E200003010B4A13600B4A934201D9084B1A6015
:101E3000FFF7CEFF054B8022D2051A60E6E7C046C9
:101E400000B0054008200140FCFF010000A0054053
:101E5000640F0020FFFFFF0010B50C4B8024E40549
:101E60001C6000280ED001230343094C0948E0619F
:101E70000948584020626162A36200211000FFF708
:101E8000B1FF10BD024B0021D961F6E700B005405B
:101E900000800540D3C007B02D3FF84F064BAA2263
:101EA00012011A602F22DA60044B054A1A60024BB5
:101EB0005B68002BFBDA7047004002400060024084
:101EC00000B0FA00704710B5002802D00B684968CE
:101ED000984710BD10B50400002321680A78303AF5
:101EE000D2B2092A08D89800C31858004B1C2360A6
:101EF0000B781B18303BF0E7180010BDF0B5D64644
:101F00004F464646C0B582B0050000919046019309
:101F10000A9B99460B9C0C9E0D9B9B070CD04E4632
:101F20000C9B9946002C19D0013C571C305D019B3D
:101F30000099A8473A00F5E72700A246B74207D222
:101F4000541C019B00992020A84701372200F5E787
:101F500054460C964E460C9B9946E3E74E460D9B25
:101F60009B0706D4100002B01CBC90469946A246BE
:101F7000F0BD4746D31BB342F4D2541C019B0099D9
:101F80002020A8472200F5E7F0B5CE4600B586B080
:101F9000049205930C9D0D9C0EAE33789946109FCC
:101FA000119B129EB2071BD4002B08D0F20706D556
:101FB0004A46002A02D10C32324200D0013BBC42D8
:101FC00008D21F2C06D830222A550134F7E73022D8
:101FD0002A550134F20703D59C4201D21F2CF6D9B1
:101FE000F20615D5720505D4002C03D0BC4223D0CF
:101FF0009C4221D00F9A102A2AD00F9A102A2FD053
:102000000F9A022A34D01F2C02D830272F550134C2
:102010001F2C05D84A46002A30D02D272F550134D1
:102020000396029301940095059B049AFFF766FFBF
:1020300006B004BC9146F0BD671E002F06D00F9A73
:10204000102A01D03C00D5E7023CD3E73C00D1E7A1
:10205000B206D2D41F2CD0D878272F550134D2E71E
:10206000B206CDD51F2CCBD858272F550134CAE73F
:102070001F2CC8D862272F550134C4E7720703D537
:102080002B272F550134CBE73207C9D520272F55F1
:102090000134C5E7F0B5CE46474680B595B0089007
:1020A00009910A920B931CAB10CB1B7898461E9D8E
:1020B000219B9946002C03D110234A469A4391460E
:1020C0008027FF004B461F4018D0002C22D000274D
:1020D00014E04A4692061BD54121C918C9B20A39F3
:1020E000C9B27E1C0CABD9552900200000F0BEFF00
:1020F000AC4210D31F2E0ED8370004002900200058
:1021000000F0B4FFCBB2092BE3D83033D9B2E8E703
:102110006121E2E726004B460693209B05931F9B17
:10212000049303954346029301960CAB00930B9BDB
:102130000A9A09990898FFF727FF15B00CBC90463A
:102140009946F0BDF0B5DE46574680B597B00A9087
:102150000B910C920D931E9A08921F9C20AB1B783A
:102160009B46229B0993239D269B9A462243131E3E
:1021700003D1103352469A4392468026F6005346C6
:102180001E4006D0089A1300234333D000263700A0
:102190001AE0370018E05246920621D54122D218A3
:1021A000D2B20A3AD2B27E1C0EABDA55099A2B0093
:1021B0000898210000F09CFFA5421DD812D01F2EC8
:1021C00016D8370008900C00099A2B0008982100B7
:1021D00000F08EFFD3B2092BDDD83033DAB2E2E75C
:1021E0006122DCE7099B089A9342E8D9370004E0B2
:1021F000370002E0002700E0370053460693259B96
:102200000593249B0493099B03935B4602930197D8
:102210000EAB00930D9B0C9A0B990A98FFF7B4FE36
:1022200017B00CBC92469B46F0BD0000F0B5D646F8
:102230004F464646C0B594B00A9006910B9207935C
:102240001C9C08941D9D099522002B00200029004C
:1022500001F0DDF9002800D0E8E001225242D64B1F
:102260002000290001F0CEF9002800D0DEE0012294
:102270005242D24B2000290001F0AEF9002800D0D4
:10228000D4E000220023089D2800099C210001F0D1
:10229000A3F9002800D0DFE0089E099F8023DB001F
:1022A000209A1A409046131E01D106331E930C96B5
:1022B0000D973A00324300D1D5E0380D4005400D6E
:1022C000BF4A944660443A03120BBE4B13431D00B1
:1022D00001F0B0F9BC4ABD4B01F03BF9BC4ABD4B23
:1022E00001F010F90C900D910022BB4B3000290039
:1022F00001F0FFF8B94ABA4B01F02BF902000B00CC
:102300000C980D9901F0FEF801F0ACF9824601F04D
:1023100091F9B44AB44B0C900D9101F01AF90022D6
:10232000B24B01F0EFF801F09DF90500B04AB14B56
:102330000C980D9901F00DF90C900D91280001F009
:1023400079F9AD4AAD4B01F004F902000B000C988D
:102350000D9901F0CEF802000B000E900F9101F0E4
:10236000F8F810901191A64B9C4665442B050D93EF
:1023700000230C930E9C0F9D22002B0020002900AF
:1023800001F0C0F80E900F9122002B000020802158
:10239000C90501F0AEF8129013910022994B109CE0
:1023A000119D2000290001F0B6F80022964B01F0A3
:1023B000A9F802000B002000290001F0ACF800226F
:1023C000924B01F09FF802000B002000290001F061
:1023D000A2F802000B001298139901F093F8020082
:1023E0000B000E980F9901F096F80022754B01F042
:1023F00089F80C9A0D9B01F0ACF802000B000C92CE
:102400000D9332003B0004000D0001F0FBF80028A2
:102410002BD001235B429C46E24400227A4B2000F1
:10242000290001F078F80C900D911EE0209B049398
:102430001F9B03931E9B0293089A099B0092019392
:10244000079B0B9A06990A9800F0F4F814B01CBC8C
:1024500090469946A246F0BD2E0080231B069C465E
:10246000644427001AE700239A4653466333C62B79
:1024700021D80425209B1B0529D50C9A0D9B1900FA
:10248000114310D0624A634B3000390001F0B2F8BA
:10249000002800D182E000225F4B3000390001F0BB
:1024A0009BF800287AD01E9B534506DD52469C1AA5
:1024B000631E1E9303E00525DCE700231E938023A3
:1024C000DB00209A1A432092002500239A461F9B86
:1024D0009D426DD25B1B99460223209A1A4090467A
:1024E00003D0002D01D0002399465346002B07D07E
:1024F0000C9A0D9B3000390001F00DF806000F001A
:10250000002200230898099901F066F8002800D0FD
:1025100086E0424B209A134004934B4603931E9B44
:10252000029300960197079B0B9A06990A9800F070
:1025300081F8002D00D189E7209B9B0675D54526A3
:10254000471C079B0200069930000A9EB047504680
:10255000C2178318534005220592013D04950022BD
:1025600003920A320292C40F01940093079B3A002F
:1025700006993000FFF78EFD4346002B00D165E73A
:1025800002000A9E0B9C1F9D131BAB424FD2571C8F
:10259000079B06992020B0473A00F5E71E9B002BC9
:1025A00095D04346002B92D01E9B013B1E938EE795
:1025B0000023994690E7C046FFFFEF7FFFFFEFFF44
:1025C00001FCFFFF0000F03FFB799F501344D33F15
:1025D000B3C8608B288AC63F0000F83F61436F6331
:1025E000A787D23F71A379094F930A400000E03FCB
:1025F0001655B5BBB16B0240EF39FAFE422EE63FED
:10260000FF03000000002C400000244000001840A0
:102610002D431CEBE2361A3F80842E41FFF7FFFF6B
:10262000802109067B181F0073E7652688E71000E4
:102630000CE7C046F0B5D646474680B597B0069041
:10264000079108920993209F1E9A1F9B1000190062
:1026500000F0DDFF002839D101225242BC4B1E9808
:102660001F9900F0B9FF00283FD101225242B94B17
:102670001E981F9900F0C6FF002845D10022B64BD6
:102680001E981F9900F0BEFF002856D10022B34BC0
:102690001E981F9900F0A0FF00284ED100220023B1
:1026A0001E981F9900F098FF002856D100239A46E3
:1026B000229B5B055CD500261F2E5BD8092F59D9BC
:1026C0000EAB30229A55013F0136F5E7229B03936A
:1026D000219B029303230193A14B0093099B089A2A
:1026E00007990698FFF70AFC03E1229B0393219BBD
:1026F0000293042301939B4B0093099B089A07992B
:102700000698FFF7FBFBF4E00423229A134010D055
:10271000954A002B0FD0042322990391219902910D
:1027200001930092099B089A07990698FFF7E6FB28
:10273000DFE08E4AEDE70323EEE7229B0493219B23
:10274000039302971E9B1F9C00930194099B089A78
:1027500007990698FFF76AFDCBE01E9A1F9B0020A1
:10276000002100F0C6FE1E901F9101239A469FE7AC
:102770000627A0E71E981F9900F074FF040000F0E0
:1027800059FF02000B001E981F9900F0B2FEFA00DC
:10279000774B9B181A685B680C920D9300F0D9FE7A
:1027A0000A900B9100F082FF050000F03FFF02004D
:1027B0000B000A980B9900F09CFE0A900B910022E6
:1027C0006C4B00F01FFF00282CD00135280000F0D2
:1027D0002DFF02000B000C980D9900F003FF00285C
:1027E00001D001340025002F2AD1200000F022FF63
:1027F00002000B001E981F9900F07BFE00225D4B2B
:102800000A900B9100F0E8FE002844D10022594BB9
:102810000A980B9900F0F6FE00283CD1E3073AD560
:10282000013438E00022534B0A980B9900F0D4FE93
:102830000028D8D1002D01D0EB07D4D50135D2E73F
:102840000A941F2E11D8013F0A21280000F00EFC27
:10285000741C30310EAB99550A21280000F006FC9B
:10286000092D0ED905002600EBE70A9C1F2E0CD877
:102870007B1E002F09D00EAA302191551F00013672
:10288000F4E7A0460A9C4646F0E71F2E03D80EAB9D
:102890002E229A5501361F2E10D80A21200000F052
:1028A000BDFB751C30310EAB99550A21200000F09C
:1028B000B5FB041E01D02E00EDE72E000323229A63
:1028C0001340012B1AD01F2E06D85346002B2FD0B1
:1028D0000EAB2D229A550136229B0393219B029326
:1028E00001960EAB0093099B089A07990698FFF78B
:1028F00005FB17B00CBC90469A46F0BD219B002BFF
:102900000AD05346002B02D10C3313420ED0219B28
:10291000013B2193190000E021998E42D3D21F2E52
:10292000D1D80EAB30229A550136F6E72199F4E75B
:10293000229B5B0704D50EAB2B229A550136CBE7C1
:10294000229B1B07C8D50EAB20229A550136C3E740
:10295000FFFFEFFFFFFFEF7F65CDCD4165CDCDC11F
:10296000107A0010147A0010087A0010047A00100F
:10297000207A00100000E03FF0B5DE4657464E4694
:102980004546E0B593B083460B910A921193002916
:1029900000D1E6E200275C46119B1878002800D1A0
:1029A000E2E2252809D07D1C0A9B3A000B99A0473A
:1029B000119B013311932F00EEE701331193002691
:1029C0001DE00B00303BDBB2092B37D92A293AD066
:1029D00000239B46119B1A782E2A44D00023984648
:1029E000119A1378683BD9B2122900D980E08B0084
:1029F000CB49CB589F4601231E4301321192119AB5
:102A000011780B00203BD8B21028DAD88300C548D3
:102A1000C3589F4602231E4301321192EFE704235D
:102A20001E4301321192EAE708231E43013211923C
:102A3000E5E710231E4301321192E0E711A8FFF7EA
:102A400049FA8346C6E71C9B1A1D1C921B68002B83
:102A500004DB9B46119B01331193BBE70222164313
:102A60005B429B46F6E78022D20016435A1C119225
:102A70005A781300303BDBB2092B04D92A2A07D03D
:102A800000239846ACE711A8FFF724FA8046A7E791
:102A90001C9B1A1D1C921B68002B04DB9846119B83
:102AA000013311939CE70023F8E780235B00334355
:102AB000511C119152786C2A01D01E0018E0C023DD
:102AC0009B001E430131119112E080233343511CBE
:102AD00011915278682A01D01E0009E0C0231E43DC
:102AE0000131119104E080235B001E4301321192F9
:102AF000119B18780300253BDAB2532A00D926E24D
:102B00009300894AD3589F4680239B001E4301327D
:102B10001192EDE780235B001E4301321192E7E73B
:102B2000782809D0582838D06F2838D0622838D073
:102B300010239E430A2500E01025582833D0692829
:102B400003D0642801D00C229643730501D50122DD
:102B5000964369282AD0642828D0B30500D59FE081
:102B6000F30500D5B8E0730600D4CAE01C9A111D25
:102B70001C911168FF220A4005965B460493434668
:102B8000039302950023019300920A9B3A000B994C
:102B90002000FFF77FFA070027E01025CDE7082582
:102BA000CBE70225C9E720221643C8E7B30520D4A6
:102BB000F30550D4730666D51C9A111D1C9111683B
:102BC000FF220A40D317D118594005965B4604935B
:102BD000434603930295D20F019200910A9B3A005B
:102BE0000B992000FFF756FA0700119B0133119350
:102BF000D2E61C9BDA1D07218A43110008311C9183
:102C0000116853689C46DB170C930D930C9A0D9B2F
:102C1000100048400E90624653400F930E980F9953
:102C20000C9A0D9B801A99410E900F9108965B4665
:102C30000793434606930495002305936346DA0FF2
:102C40000292009001910A9B3A000B992000FFF735
:102C500079FA0700C9E71C9A111D1C911268D31755
:102C6000D118594005965B46049343460393029559
:102C7000D20F019200910A9B3A000B992000FFF7B6
:102C800009FA0700B1E7330605D51C9A111D1C91FE
:102C90000023D25E96E71C9A111D1C91126891E7E1
:102CA0001C9BDA1D07218A43110008311C910896EC
:102CB0005B460793434606930495002305930293CE
:102CC00053681268009201930A9B3A000B99200006
:102CD000FFF738FA070088E71C9A111D1C9105962A
:102CE0005B460493434603930295002301931368C4
:102CF00000930A9B3A000B992000FFF7CBF90700DD
:102D000073E7330606D51C9A111D1C911268120434
:102D1000120C31E71C9A111D1C9112682CE7C04659
:102D20002478001070780010B478001046281AD06B
:102D30001C9B0733072293431A0008321C92049607
:102D40005A460392424602921A685B6800920193C7
:102D50000A9B3A000B992000FFF76CFC0700119BBF
:102D60000133119318E620231E43E1E7672801D0C1
:102D7000472802D180231B011E43452801D0472844
:102D800001D120231E431C9B0733072293431A00C3
:102D900008321C9204965A460392424602921A68DE
:102DA0005B68009201930A9B3A000B992000FFF7A1
:102DB0003DFA0700119B01331193EDE502233340E7
:102DC0009A461ED001261C9B1A1D1C927D1C187849
:102DD0000A9B3A000B99A0475346002B15D1119B33
:102DE000013311932F00D7E5551C0A9B0B99202026
:102DF000A04733002A005E1C9F42F5D8BB4617004F
:102E0000E1E701233A005F46F5E72A00A0465C4669
:102E100006E0571C0A9B0B992020C0472E003A0061
:102E2000751CB442F5D815004446D8E71C9B1A1D02
:102E30001C921B689A464346002B00D1013B554625
:102E40002A78002A05D05A1E002B02D00135130023
:102E5000F6E75346ED1A8023DB003340994602D053
:102E6000454500D9454602233340109308D03A0027
:102E7000564629004D4623004446984689461FE0A1
:102E80003A0023005C469B4606E0571C0A9B0B99C0
:102E90002020D84735003A006E1CAC42F5D83500EA
:102EA0005B46A346564629004D4644469846894609
:102EB00006E01C000136571C0A9B0B99C0473A00DC
:102EC0003078002804D0002DF4D0631E002CF0D1FF
:102ED00017004D464446109B002B03D1119B013334
:102EE000119359E55C4606E0571C0A9B0B9920207C
:102EF000C04735003A006E1CAC42F5D81700444676
:102F0000ECE7212333431C9A111D1C911268009297
:102F1000059308230493434603931023029300234D
:102F200001930A9B3A000B992000FFF7B3F80700C2
:102F3000119B013311932FE57D1C0A9B3A000B99DD
:102F40002520A047119B013311932F0024E57D1C00
:102F50000A9B3A000B99A047119B013311932F0054
:102F60001AE50B4B9B4615E5A3460A9B9F420CD3E3
:102F70005A1E0A9B0B990020D847380013B03CBC5E
:102F800090469946A246AB46F0BD3A00F1E7C046EE
:102F9000C51E001000B585B0029003910121009379
:102FA00013004A4202A90248FFF7E6FC05B000BD43
:102FB000C71E001001480421014B1847800400205F
:102FC000E52F001010B5010018231B88142210886B
:102FD000984710BD10B5010018231B8816221088D1
:102FE000984710BDF0B5C64600B507000E00002595
:102FF0000123984600E00135B5420AD2AC003C19E5
:103000002068FFF7DFFF20600028F4D100239846F6
:10301000F1E7404604BC9046F0BD0000124A936FB1
:103020009B0815D29066D166002905D0FFE7FFE71F
:10303000FFE7516F106F704704B580210906C21772
:103040005140002800D0C84303F076FE002104BDA3
:10305000F0B5146E556E576F166FFFF7E3FF1466E9
:10306000556657671667F0BD000000D0114A936F90
:103070009B0813D210665166002905D0FFE7FFE7D1
:10308000FFE7516F106F704704B5002801D0002092
:10309000C04303F051FE002104BDC046F0B5146EDC
:1030A000556E576F166FFFF7E5FF14665566576745
:1030B0001667F0BD000000D094464E4A926F920809
:1030C000624601D230E0C046F0B54A4EB56F6D0899
:1030D000FCD3346E756E776F366F00F025F894462A
:1030E000444A14665566576716676246F0BDC04687
:1030F0009446404A926F9208624601D258E0C04618
:10310000F0B53C4EB56F6D08FCD3346E756E776FBD
:10311000366F00F04DF89446364A14665566576788
:1031200016676246F0BDC046002B24DB11D0002993
:103130003EDA00B5C943404200D1013100F038F811
:10314000C943404200D10131DB43524200D1013337
:1031500000BD002AEBD1002801D1002905D00020B4
:10316000C90FC90701D1C043410800B503F0DCFD18
:103170000022002300BD00B500290ADBDB435242D8
:1031800000D1013300F014F8C943404200D10131AD
:1031900000BDC943404200D10131DB43524200D15E
:1031A000013300F005F8DB43524200D1013300BD8A
:1031B000002923D1002B18D1002A0CD0BC460D4F7A
:1031C00038667A6600210023FFE7FFE7FFE77A6FA2
:1031D000386F67467047002801D00748010000B5E6
:1031E00003F0A2FD0022002300BD02000B0000201E
:1031F00000217047000000D0FFFFFFFF002B00D030
:10320000BFE0130C28D1002AE7D080B4114F3966F3
:103210007A66FFE7FFE730B4040C7B6F396F1B045D
:1032200023433B667A66FFE7FFE7FFE7C04684B2C9
:103230007B6F3D6F1B0423433B667A66FFE7FFE726
:10324000C04600232C042D0C7A6F386F0019694199
:10325000B0BC7047000000D0F0B594460025140EB5
:1032600001D112020835140F01D112010435940F57
:1032700001D192000235D40F01D152000135D40B97
:103280000134254F7C66254C3C660E0C93B2FFE75B
:10329000FFE7FFE73C6F6643360C7703BE46734398
:1032A000DF0B5B04C01AB941130C7343DB18C91A56
:1032B000CE086643360CB64493B273431F0F1B010E
:1032C000C01AB941130C73431F0B1B05C01AB94137
:1032D000860D8F023E436643360C092D24DB520ACD
:1032E0007243801A7703460A6643360C16235B1B2B
:1032F000DE40DF40BF1964466643821B70460435DA
:1033000006330100D940A840C01900D30131A242C0
:1033100006D20023F0BD0000000000D0FFFFFFFF39
:10332000121B0130F3D3F1E709277F1BFE406446EF
:10333000A2B27243801A00D20139220C7243130CDC
:103340001204821A99410B007046043513370100AC
:10335000F940A840801900D30131002B02D1A242CC
:103360000AD2F0BD013000D30131121BFAD2013B69
:10337000F8D1A24200D2F0BD013000D30131121BBE
:10338000F7E7F0B51C0C00D080E00CB400251C0A57
:1033900004D11B02160E3343120208351C0B04D154
:1033A0001B01160F3343120104359C0B04D19B0003
:1033B000960F334392000235DC0B02D192185B4129
:1033C00001351C00971864410134464F7C66464C19
:1033D0003C660E0CFFE7FFE7FFE7C0463C6F664325
:1033E000360C7703BE4697B27743C01B00D2013933
:1033F000C01B00D201399FB27743C91BC91B170CF0
:1034000077437E04FF0B801BB941CE086643360C20
:103410000C2D33DBB644120B1F053A431B0B97B23E
:103420007743C01B00D201399FB27743C91B170CE9
:1034300077433E043F0C801BB941860D8F023E430B
:10344000664329277F1BFE400C3D7746AF40BF19DE
:1034500030BCA2B2ABB272437343801A9941220CC2
:103460007243130C1204801A994102000B000137B9
:10347000001BA941F9D2781E0021F0BD0C277F1B4B
:10348000FE4077467F0BAF40FF19E0E700245D1C4C
:1034900007D0144F7D663966FFE7FFE7FFE7FFE7D8
:1034A0003C6F95B29EB265436643401BB141150C1B
:1034B0001E0C6543664336042F0C3E432D04401B0F
:1034C000B141994204D202000B0020000021F0BD5E
:1034D00001D19042F7D3801A994101349942F2D335
:1034E000F6E70000000000D0FFFFFFFF484041402A
:1034F000484018B41B4B5B68FC46019308BD04DFD1
:10350000C737001018B4174B1B68FC46019308BD61
:1035100000DFD13700109446134A926F920809D207
:10352000624618B40F4BDB68FC46019308BD0CDF04
:10353000893A00100C4AF0B5146E556E576F166F2D
:103540006246FFF7EEFF084A14665566576716672E
:10355000F0BD18B4034B9B68FC46019308BD08DF1F
:103560002D390010BC0F0020000000D0FFB55040E6
:103570004240504059404B40594000E0FFB5154F84
:103580004C00640D03D0BC4204D10C0314D80020BD
:10359000090D09055C00640D03D0BC4204D11C0375
:1035A0000AD800221B0D1B0501264B4009D44B40B5
:1035B00003D58B4200D18242FFBD9942FCD190429B
:1035C000FFBD0B43DB1803431343F5D0C943491830
:1035D000FFBD0000FF07000000B5FFF7CFFF8041EF
:1035E00000BDC04600B5FFF7C9FF01D9002000BDEE
:1035F000012000BD00B5FFF7B9FF01D9002000BDD3
:10360000012000BD00B5FFF7B1FF804100BD0120E2
:1036100040054A00121804D85A00121801D8002098
:1036200070470120704700207047000000210028EB
:1036300005D17047C1174840401AFAD0C90713B5E1
:10364000064B1B6898470CBC441CA2401005120B8B
:103650000349091B09051943114310BD840F0020BC
:103660001F04000010B54C00620D8023D218DB004F
:10367000D21A5B057E2A10DD9E3A13DACC170903B5
:10368000490819435242D140640001341532202ABE
:1036900005DAD0400843604310BD002010BD084645
:1036A000604310BDC80FC018013810BD18B4044BDA
:1036B0005B6AFC46019308BD24DF393C0010000022
:1036C000BC0F002070B513231C78012C0CD0012CEA
:1036D00013DC022C02DC1F4A1F4B9A641F48FFF7C1
:1036E00071FC1F4B186070BD00231F2BEFD8990091
:1036F0001848194A88500133F7E71A48FFF76AFC5F
:1037000005001948FFF766FC023803789B007F2B01
:1037100019DD80222900104800F0ACFB022CD8D122
:10372000124B1A88B5231B029A4209D1104B1A88F2
:10373000104B9A4204D1104B1A88104B9A42C8D0B1
:103740000020FDF797FF0E4B0E4A32210E48FDF781
:10375000F7FEC0468D370010BC0F00204C33000030
:10376000840F0020534400005346000054380000EA
:10377000D8380000494600009C3800005946000037
:10378000707A0010247B0010D07A001007B56046D4
:10379000002800D100BE01880A0A0230DF2AFAD1CF
:1037A000C9B2820804D3028840880004104300E0B4
:1037B0000068024A5050039007BD0000BC0F002073
:1037C0000FB403BC0CBCF0B50124E407634000E077
:1037D000F0B50C0DCF0F661E3605891B640503D3AB
:1037E000C943404200D30131640D03D0661CF60A80
:1037F00007D0E41B00207F00791C89078912803CD8
:1038000024031D0DDF0F6E1E36059B1B6D0503D3B4
:10381000DB43524200D301336D0D03D06E1CF60A18
:1038200007D0ED1B00227F007B1C9B079B12803D75
:103830002D032F1B661B58D4A446202E46DA2037B2
:103840001400BC401D00BD40F24033412A438018A3
:103850005941CB0F05D0C943C043002264425041B7
:10386000514162464D0D28D10D0D07D100281FD0C2
:10387000241940414941013A0D0DF9D0640006D3A5
:10388000013000D30131002C01D140084000013A41
:103890000BD4941CE40A04D112051144DB0719442B
:1038A000F0BDD907204B194300E0D9070020F0BD37
:1038B0000029DDD1002CDBD1F0BD0132C607400864
:1038C000CD0728434908002EE1D0D9E73C2E29DA5C
:1038D000203E40371400BC4000D00124F240144385
:1038E0001A00BB401C43D317ACE7AC46202F08DAC4
:1038F00020360400B4400D00B540F840394128435B
:10390000A5E73C2F0CDA203F40360400B44000D03D
:103910000124F84004430800B1400C43C117EAE712
:1039200010001900002494E70000F07FF0B50C0DA2
:10393000661E3605891BE60A6405640D02D0651C07
:10394000ED0A04D0002001210905803C2403A4468F
:103950001C0D671E3F05DB1BE70A6405640D02D0E2
:10396000651CED0A04D0002201231B05803C2403C2
:103970007740644497B484B296B27443070C7E4394
:10398000150C6F4380B26843361802D3012000043F
:103990003F183004350C00197D41844688B29AB234
:1039A00050430C0C62431F0C7C438EB27E43921931
:1039B00002D301263604A4191604170C36186741E1
:1039C00001BC81B29AB25143040C62431B0C5C43AC
:1039D00080B25843121802D30120000424181004A6
:1039E000130C401863412D185E410020474106BC6E
:1039F00088B293B258430C0C6343120C544389B2FF
:103A000051435B1802D301210904641819041A0CEC
:103A1000091862416D1856410020474118BCF9024F
:103A2000720D1143F0026A0D1043ED020A0D03D12D
:103A30006D1940414941013B124E9B1B7600B34238
:103A40000ED26D0007D30130002671416646354322
:103A500001D1400840001B05C918E4072144F0BD0E
:103A60000BDA013306D1013004D101314F0D01D001
:103A70004908F2E7E1070020F0BD013631050020DA
:103A8000EBE70000FF030000F0B51C0D671E3F05CB
:103A9000DB1BE70A6405640D02D0661CF60A04D03D
:103AA000002201231B05803C2403D0252D0600267F
:103AB000F6432E661E096E66CE0FF619B44649000F
:103AC0004F0D02D07E1CF60A03D000200021403F9B
:103AD0003F033E1BB600B444013F7F05C91B4908A4
:103AE0002E6F013676089C02950D25437543ED1324
:103AF0007543AD1301356D10F603761B0CB4CC0283
:103B0000450D2C43A2B2B3B25A43270C7B43350C6C
:103B10006F43A4B26C431B1902D3012424043F1940
:103B20001C041D0CA4187D4124196D41009A91B20A
:103B3000ACB26143170C7C432B0C5F4392B25A43E7
:103B4000A41802D301221204BF182204230C521815
:103B50007B41019C6C431B19520ED9010A4344015D
:103B6000A01A81B2B2B2514303145A43360C7343C4
:103B700087B27743D617D21900277E4136049B19A6
:103B80001704160C7F185E417316ED18F30100261A
:103B900080337541A90F06D16400690AE8055B0A04
:103BA000184309D22FE00422944480337541A90AB6
:103BB000A8059B0A184326D3404149412404009A92
:103BC000019B0D005543641B4343E41A95B286B232
:103BD0007543170C7E43030C5F4392B25A43B618E9
:103BE00002D301221204BF183204330C52197B4154
:103BF00052429C41002C02D4002201305141400825
:103C0000CA071043490802B06246D7079210084B12
:103C1000D218084B9A4203D212058918C919F0BD6F
:103C20000020002A01DC3900F0BD01331905F5E759
:103C3000FD030000FE070000002200B5203200F066
:103C400004F8080000BD000000220B150AD410B5CE
:103C5000944600F031F81414013400DA0021CB1737
:103C6000144C20470020002170476244343A0CD4A1
:103C70000C2A07DA04009140904052422032D4408E
:103C8000214310BDD843D94310BD203207D40C4680
:103C90009440524220321141D040204310BD0800D0
:103CA000C917203203D452422032104110BD1800EF
:103CB000190010BD6B3C00100A0DCC0F531E1B05E4
:103CC000C91A520503D3C943404200D30131520DF2
:103CD00003D0531CDB0A07D0121B00206400611CB8
:103CE00089078912803A1203014BD21A70470000EB
:103CF000FF03000051434343C9188C46110C83B2A3
:103D00004B4310B4040C614392B280B250436243FF
:103D10001C041B0C001910BC59411304120CC018D0
:103D2000514161447047000070B513231D782A4843
:103D3000FFF750F90400012D11D0012D09DDA31E5C
:103D40001B789B007F2B40DD80222100234800F060
:103D500091F82348FFF736F9224B186070BD5422C2
:103D600001001E4800F086F81F4B1A881F4B9A422C
:103D70001CD1A7239B011A881D4B9A4216D11D4BBB
:103D80001A881D4B9A4211D11C4B1A8894239B010F
:103D90009A420BD11A4B1A881A4B9A4206D11A4BE7
:103DA0001A681A4B9A4201D1152307E01848FDF70B
:103DB00061FC99001748094A885001331F2BF8D934
:103DC000144A064B1A62DA61B7E7134B134A4221D1
:103DD0001348FDF7B5FBC04653460000BC10002059
:103DE0004C330000840F0020EE290000C40F0000B7
:103DF000C20D0000962B0000C0B50000182B00007B
:103E0000CC2A000010B50000FC2C000051ED8764A6
:103E1000B0730010253E0010387B0010BC7B0010F2
:103E20006C7B001007B56046002800D100BE0188F9
:103E30000A0A0230DF2AFAD1C9B2820804D3028802
:103E400040880004104300E00068024A505003908C
:103E500007BD0000BC10002001480421014B184799
:103E600090040020E52F0010014B1B68184700004C
:103E700090040020014B5B6818470000900400206C
:103E800010B50C00036811002000984710BD000019
:103E9000F8B507000D001600437C002B02D000246B
:103EA00000200CE003681100280098472DE03B7CBF
:103EB00010E0022115483B689847601C0134B44269
:103EC00014DA002CF3DD2B19013B1B780D3B5A4211
:103ED0005341DBB22A5D0A2AF0D1002BEED1A04279
:103EE000E7DA211A28183B689847E2E7B04203DA7C
:103EF000311A28183B689847002E06DDAD19013DA0
:103F00002B780D3B5A4253413B74F8BD487C00105E
:103F100070B505000368002B16D00C4B1C6805E03B
:103F2000290004C92000FFF7B3FFE468002C09D082
:103F30002368002BF9D0064B1B68002BF0D0A3425E
:103F4000F3D1EDE700232B6070BDC0465C0B002071
:103F5000600B002070B505000C000B68802B05D0AD
:103F600023685A1C2260E418257170BD0800FFF711
:103F7000CFFFF5E710B582B0D0231B0600241C57F5
:103F800001A9074802F0E0FE002806D1019B9C42EF
:103F900003D0034802F0E8FE012002B010BDC04685
:103FA000E004002010B5024802F0B6FE10BDC04685
:103FB000E0040020F0B5C64600B584B001900D00C5
:103FC00016001C00FFF7D6FF80466B1C05D0002CA6
:103FD00008D0194F194B1C6807E0019802F05EFEEB
:103FE0000500F4E7164FF5E7E468002C16D02368C7
:103FF000002BF9D0134B1B68002B01D0A342F3D147
:104000002A0001992000B847002EEDD002ABD91D3F
:104010000A230B7001222000B847E5E74346002B36
:1040200006D1681E8541E8B204B004BC9046F0BDDC
:10403000FFF7B8FFF5E7C046813E00105C0B00209B
:10404000913E0010600B00200C4B1A681300002BEF
:104050000BD0834202D01A00DB68F8E7002903D1B5
:10406000DB68D3600023C36070470029FCD0002ABE
:1040700001D0D060F8E7014B1860F5E75C0B002039
:1040800010B5064B1C6800E0E468002C04D063689F
:10409000002BF9D09847F7E710BDC0465C0B002015
:1040A00070B5050002F0FAFD0400002301220100B2
:1040B0002800FFF77FFFFFF7E3FF200070BD00003F
:1040C00070B5A2B004000E00FFF754FF0500842273
:1040D000002101A8FFF7C8FE3300220001A908480B
:1040E000FEF758FF040001A8FFF712FFFFF7C8FF13
:1040F000002D02D1200022B070BDFFF753FFF9E779
:10410000553F00100FB400B583B004A901C9019157
:10411000FFF7D6FF03B008BC04B0184710B500F095
:1041200035F910BD70470000014B00221A7070472E
:10413000BA0F00204B79FF2B0CD18B79002B0BD1C0
:10414000CB79012B0AD1082A0AD98A78054B1A7033
:10415000092000E0002070470020FCE70020FAE77B
:104160000020F8E7BA0F00200120704770B5002941
:104170002BD1117953791B020B43154909788B42D6
:1041800001D0002070BD5378012B03D0022B15D035
:104190000020F7E79178D3781B020B43DA050BD5A3
:1041A0005A0A012595407F241C400A48FEF70AFF61
:1041B00003002100280098470025F4E7642200212D
:1041C0000020FDF749FE0120DCE70120DAE7C046C8
:1041D000BA0F0020554200000123037000487047C9
:1041E0004C7C001010B50B784A7812021A438B7879
:1041F0001B041A43CB781B0613439622D20093422A
:1042000000D010BD0348FEF7DDFE030000210800CA
:104210009847C0465542000030B583B004000D00F9
:1042200001A9184802F090FD002808D1D0231B06F0
:104230001B68019A9A4221D0124802F095FD002095
:1042400001F01AFE002807D1032464420D4802F051
:1042500063FD200003B030BD002001F02FFE0028D8
:1042600002D103246442F1E72A002100002001F07A
:1042700031FE041EEAD103246442E7E703246442CA
:10428000E7E7C0468C0F002010B50021054802F07A
:104290005BFD002800D110BD01F088FB014802F051
:1042A0003BFDF8E78C0F0020F0B5C64600B582B0A4
:1042B00080460D0001A92E4802F046FD002808D1D5
:1042C000D0231B061B68019A9A420FD0284802F09F
:1042D0004BFD002001F0D0FD002847D1254B0020E8
:1042E000002118605960224802F016FD02B004BC9B
:1042F0009046F0BD01F05AFB002001F0FFFD0020C8
:1043000001F0BAFD0028EED0002001F079FE00286F
:104310001DD0AC42E7DA2E1B002001F071FE864270
:1043200000DC30000028E5D04346191902000020C7
:1043300001F04AFE060001F039FB002001F0DEFD2D
:10434000A419FCF7C5FD0B4B18605960E1E7FCF7B9
:10435000BFFD084B1E685F68074A002392197B4126
:104360009942C0D8D5D19042D3D9BCE70024D0E738
:104370008C0F00200006002020A1070010B51F2090
:10438000FDF700FBFA208000002110BD70B584B05D
:10439000234B1B7802F074F822491F20FDF702FB23
:1043A00001211F20FDF7E6FA1F48FCF781FEFCF70C
:1043B000C7FB0400FCF78CFD002920DBFA229200E9
:1043C000002312184B41994202D804D1904202D9DD
:1043D00001225242D317002B17DB01210291002149
:1043E0000191124900912000FCF7C0FB0400631EFC
:1043F0009C41E4B200280ED1200004B070BD0C4BEB
:104400000C4A3F210C48FDF79BF8094B094A3F2114
:104410000948FDF795F801210848FFF715FEEBE77D
:10442000A4830010894200108C0F00207D430010EF
:10443000AC6E0010707C0010C86E0010A00400204C
:10444000004870471C7D001000487047C87C001071
:1044500010B50400154B1B78002B0DD0002C10D18B
:10446000134B144A5A80012301335B00C02292008F
:1044700013430F48038010BD11210C4802F0BEFB0E
:10448000ECE7052C0FD8A4000B4BE458002304E004
:104490000133590006484252DBB2122BE4D8E25CE9
:1044A000002AF5D1E0E70020E5E7C046A40F002090
:1044B000340B002009040000307D00107F230340EE
:1044C000C209580080184001014BC0187047C0460F
:1044D000640B002010B582B001AB00221A7080324C
:1044E0005A70002406E001AB185DFFF7E7FF0123D7
:1044F000C3700134012CF6D902B010BD10B5838B06
:104500003F333F229343022915D0124C2268C260E8
:10451000D31823609C0610D10F4C62406340802466
:104520006401A3420FD88906114380231B06194357
:104530004368196010BD5B00E7E7084B084A542147
:104540000848FCF7FDFF084B054A56210548FCF7D3
:10455000F7FFC046680F002000001050A87D001033
:10456000487D0010D87D0010387E0010F8B5050099
:104570000E001400FFF7A2FF7F232B40EF09857088
:104580007A427A4142700022C27086838477012F7A
:104590000DD0DA0012498C466244826082680021A4
:1045A0001160002B09D143600E4BC360F8BDDA00E7
:1045B0000D498C4662448260F0E7012F09D0013B2F
:1045C000DB000A4A9446634443602100FFF796FFEC
:1045D000ECE7013BDB00064A944663444360F4E7A2
:1045E0008400105000011050800010500C0010503A
:1045F0000800105010B500230E2B09D80133DA0043
:10460000002108481150844662445160DBB2F3E750
:10461000F022920000210448FFF726FC034B044AD5
:104620001A6010BD00001050A40B0020680F00207D
:1046300080011050F0B5CE46474680B583B01D4B83
:104640009F6D0024012614E04B465B0043445B0150
:10465000194AD3189A8A99780123009300230020DD
:1046600000F02AFE280000F025FAB7437600013456
:10467000E4B2002F18D01F2C16D83E42F6D00F4BB4
:104680009E65630899460123634001221A409046C3
:104690004B465D0045446D01074BED18280000F0C6
:1046A00099FA0028E1D0CFE703B00CBC90469946B8
:1046B000F0BDC04600001150640B002000301150C6
:1046C00070B52A4A9823D558802464022C400AD118
:1046D000EB0616D4EB0419D46B0429D42B0433D481
:1046E000AC423ED170BDFFF7F5FE0122204900200B
:1046F00000F0C8FD1F4B802292021A6580246402DC
:10470000E6E710231C43FFF795FFE3E780235B01F7
:104710001C43164B00221A60FFF76CFF0122002198
:10472000002000F099FD134B802212031A65D3E795
:104730008023DB011C4301220421002000F078FDCE
:104740000C4B10221A65C9E780231B021C4301226F
:104750000521002000F06CFD064B802212011A6535
:10476000BEE7210069400448FCF784FF00001150B7
:104770000000105000301150787E001070B50C0011
:104780001500FFF79BFE2A00210000F0FFF970BD25
:1047900010B5002804D101210520FDF7EBF810BD6C
:1047A000B921034B034A49000348FCF7C9FEC04640
:1047B0006C7E0010687D0010D87D001010B50028B8
:1047C00005D1002200218020FFF7D8FF10BDBF21B6
:1047D000024B034A49000348FCF7B2FE6C7E00100E
:1047E000787D0010D87D0010024B80225202DA64DE
:1047F0007047C0460020115070B5051E25D100F04D
:1048000033F9154C0C23A36714490520FDF7CAF8AA
:10481000402200211248FFF727FB00224021002000
:10482000FFF7A4FE002240218020FFF79FFEFFF744
:10483000E1FE0123236480239B05E3649023094A5E
:10484000E2502800FFF7D0FF70BD4E21064B074A0B
:10485000FF310748FCF774FE00001150C1460010FC
:10486000640B002010D001006C7E00105C7D0010F5
:10487000D87D00100B785B0602D14B78052B00D059
:1048800070478A78014B1A60FAE7C0460000115061
:1048900010B50C0000280DD1097962790723134067
:1048A0001B021943E2789207920FA078FFF75EFE91
:1048B000012010BDD621034B034A49000348FCF7F1
:1048C0003FFEC0466C7E0010887D0010D87D001031
:1048D00010B5FFF78FFE10BD10B50C0011000028B9
:1048E00005D11A002000FFF749FF012010BDBC21AF
:1048F000024B034AFF310348FCF722FE6C7E001096
:10490000987D0010D87D001010B54B0605D1CB095D
:10491000012B0BD00222064B9A660800FFF7CEFD52
:1049200080221201002100F0CBF810BD0122F2E735
:104930000020115010B54B0600D110BD0800FFF744
:10494000BDFD0023C3700022014900F0B9F8F4E76F
:10495000FFF7FFFFF8B504000F00438A828B1E1C8F
:10496000934200D9161CB6B29B1B63828025ED00D2
:104970003543E378002B13D08022920115430122A6
:104980005340E3706378002B0CD0638A002B02D174
:104990008023DB011D43002F00D02D042800F8BD2B
:1049A0000022EBE7B801E3689C4660443200A1694D
:1049B000FFF760FAA3699C466644A66180231B0248
:1049C0001D43E2E770B5040083681B68002900D02E
:1049D0001B0C9D05AD0D6278002A11D11B0409D472
:1049E000A38A5B19A382A38BAB4201D90023638204
:1049F000280070BD0E4B0F4AD7210F48FCF7A0FDD1
:104A00001B040ED58901E3689C4661442A00A06915
:104A1000FFF730FAA38A5B19A382A3695B19A3612C
:104A2000E1E7064B034ADE210348FCF789FDC04657
:104A3000287F00108C7E0010487F0010A87F001097
:104A400010B5040083681B680021FFF7BBFF636893
:104A50001B685B0002D5A38B834200D010BD0121EF
:104A60002000FFF7AFFFF9E710B580235B040C4A85
:104A700013600C4A13600C4B9A6880235B049343C9
:104A8000F9D10A4C9C2200212000FFF7EDF9802289
:104A9000520100210648FFF7E7F90923636710BDBB
:104AA00000E0004000F0004000C000400000115055
:104AB0000000105000230374438283828361704797
:104AC00010B5002902D083681B681940002A0FD056
:104AD000114353050CD5826813685B050BD40B4B4F
:104AE0000B401360FFE7FFE7FFE7FFE7FFE7FFE7A4
:104AF0008368196010BD83787F211940DB099B0012
:104B0000034A9A580348FCF7B5FDC046FFFBFFFF78
:104B1000B40400209C7E001070B5040043681E6839
:104B20000021FFF717FF80256D010543144B1B6C17
:104B30009B0704D4A378DB0914D1013300E00023E0
:104B4000628A002A01D0002B0ED00E4B1E4080231B
:104B50009B053343626813602A0000212000FFF7A1
:104B6000AFFF70BD0023EBE701212000FFF7F2FE4D
:104B70000543054B1E40A023DB053343EAE7C0464F
:104B800000001150FFFFFFAFFFFFFFDF70B5040013
:104B90000D001600037C002B09D166820023A3823E
:104BA00001332374A5612000FFF7B6FF70BD837841
:104BB0007F211940DB099B00044A9A580448FFF7FB
:104BC000A1FA2000FFF776FFE7E7C046B404002013
:104BD000E87E001070B50400057C002D06D0FFF7BC
:104BE0002FFF638A002B08D1280070BD81787F23B6
:104BF0001940044A0448FCF73DFD2000FFF78CFFF4
:104C00000025F1E7B4040020BC7E001070B505005B
:104C100000240EE062001219D100184B1B685B18CB
:104C200002E0230010E000235B682800984701346D
:104C3000E4B2134B1B78A3420ED3124A002AF0D0E1
:104C4000A342E7D8E31ADBB2002BECD15A00D31809
:104C5000DA000D4B9B18E7E70C4C53220021200093
:104C6000FFF702F9E01C1022FF21FFF7FDF82000FA
:104C700013302022FF21FFF7F7F870BD2406002033
:104C8000B50F0020D9410010E88000105C09002019
:104C900010B5FFF7BBFF01F02FF810BD70B5050090
:104CA0000C001600C86801F031F8E36832000021FA
:104CB0002800984770BD0000F0B5DE4657464646CE
:104CC000C0B582B001900139C8B2FFF7BDFB002822
:104CD00003D043789846022B0BD0554A5549564885
:104CE000FFF710FA002002B01CBC90469A46A3467B
:104CF000F0BDC5796B110122504C13401901237886
:104D00001026B343AD112A4052010B4320218B439F
:104D100013432370050009358278C3781B021343BF
:104D200082469A4462E0EB789B462B78ED1864E06B
:104D3000434A40494048FFF7E5F90020D3E76300C4
:104D40001B19DB003F4A1668F61802E0230018E042
:104D50000026009A29000198B768B847070008287C
:104D600002D9009B834214D20134E4B2364B1B7843
:104D7000A34237D3354A002AE8D0A342DFD8E31A4A
:104D8000DBB2002BE4D15A00D318DB00304EF6180A
:104D9000DFE75B46012B10D0002293451AD9AB7890
:104DA0009B18DBB22549C918C978FF290BD12349C3
:104DB000CB18DC700132D2B2EFE7B268254B9A42D1
:104DC000EAD1C346E8E7244A1A491B48FFF79AF993
:104DD000002088E7194823003A002900133001F029
:104DE000BDFBED19184B1B78A3420FD3554515D2C7
:104DF0006B780B2B97D001239B466B78042B97D1B4
:104E000053465E1BB3B200930024AFE7F322920037
:104E100008490948FFF776F9002064E70F4B002B9B
:104E200003D000E000BF01205DE701205BE7C04642
:104E30007B03000088800010008100105C090020C6
:104E40009603000024060020B50F0020D941001071
:104E5000E880001019610010BD0300000000000090
:104E600070B504000D008B78C87800021843020A60
:104E7000C0B20F2A55D893003049CB589F46FFF750
:104E8000DFFA020012232900200000F0E3FE70BDCB
:104E90002B4B002B47D000E000BF02008178C37885
:104EA0001B020B432900200000F0D4FEEFE7022A8A
:104EB00010D0244B002B38D000E000BF00280CD0CD
:104EC0008278C3781B02134302002900200000F0FF
:104ED000C1FEDCE7FFF7B8FAF0E71B4A1B491C48A4
:104EE000FFF710F90020D2E72B79697909021943FD
:104EF000FFF7AEFA00281AD003780200290020003C
:104F000000F0A8FEC3E7134B002B12D000E000BF57
:104F1000002810D0037802002900200000F09AFE3B
:104F2000B5E70020B3E70020B1E70020AFE700209D
:104F3000ADE70020ABE70020A9E7C046C87F00101E
:104F40000000000000000000140400009C8000101D
:104F50000081001000000000024B5878431E984169
:104F6000C0B270475C090020024B18784007C00FA0
:104F70007047C0465C090020014B18787047C04656
:104F8000B60F002070B50500274B1878002800D018
:104F900070BD532200212548FEF766FF244C2000F7
:104FA000FCF786F8234B1C60234C20001C30FCF7D8
:104FB000A5F8200001F0D5FD204B1C60204B002BF4
:104FC00004D02048FFF708F91F4B186000240DE0BB
:104FD00062001219D1001C4B1B685B1802E0230011
:104FE0000FE000231B6898470134E4B2154B1B788F
:104FF000A3420ED3124A002AF1D0A342E8D8E31A02
:10500000DBB2002BEDD15A00D318DA000F4B9B18FE
:10501000E8E72800FFF7F0FB2800FFF7B9FB024B99
:1050200001221A700120B3E7B60F00205C090020AE
:1050300014090020B0090020BC040020B40900209D
:10504000D9410010B50F002024060020E880001090
:1050500030B585B004004378032B00D18BE02DD907
:10506000042B5FD0052B00D0B8E06D4B1B78DB071D
:1050700050D56B4A137804218B431370694B1D681C
:10508000EA69EFF3108172B61368002BFCD0BFF30E
:105090005F8F29622100280001F028FDEA692B6A50
:1050A000BFF35F8F0021116083F31088002831D196
:1050B000A8225D495D48FFF725F82BE0022B00D0C0
:1050C0008CE0574B1A7801218A431A701A78013103
:1050D0008A431A7000225A701A7802318A431A7071
:1050E000504B1D68EA69EFF3108172B61368002B0C
:1050F000FCD0BFF35F8F29622100280001F0F6FC8D
:10510000EA692B6ABFF35F8F0021116083F3108877
:10511000002801D005B030BDA82243494348FEF71E
:10512000F1FFF7E73E4B1B78DB07F3D53C4A1378DA
:1051300004210B4313703B4B1D68EA69EFF31081A8
:1051400072B61368002BFCD0BFF35F8F2962210079
:10515000280001F0CBFCEA692B6ABFF35F8F0021C6
:10516000116083F310880028D4D1A8222E492F483B
:10517000FEF7C8FFCEE72A4B1B785B07CAD5284A43
:10518000137804218B43137001AD0C2200212800F9
:10519000FEF76AFE23782B7005236B70214B1C6889
:1051A000E269EFF3108172B61368002BFCD0BFF3F5
:1051B0005F8F216201A9200001F098FCE269236A57
:1051C000BFF35F8F0021116083F310880028A1D105
:1051D000A82215491548FEF795FF9BE7114B1D685E
:1051E000EA69EFF3108172B61368002BFCD0BFF3AD
:1051F0005F8F29622100280001F078FCEA692B6AA0
:10520000BFF35F8F0021116083F31088002800D066
:1052100080E7A82204490548FEF774FF7AE7C046F4
:105220005C090020B40900205480001000810010A7
:10523000F0B585B007000E00150001AC0A22002170
:105240006B46981DFEF710FE27706670290020003F
:10525000FFF7FEFE05B0F0BDF0B585B007000E000B
:10526000150001AC0A2200216B46981DFEF7FCFDDB
:10527000277001236370267129002000FFF7E8FEE4
:1052800005B0F0BDF0B585B007000E00150001AC0B
:105290000A2200216B46981DFEF7E6FD27700623C3
:1052A00063700822310002A8FEF7E4FD2900200007
:1052B000FFF7CEFE05B0F0BDF0B5CE46474680B54F
:1052C00085B08146884617001E000CAB1D7801ACE6
:1052D000062200216B46981DFEF7C6FD4B46237043
:1052E0000723637043462371A7606671290020007D
:1052F000FFF7AEFE05B00CBC90469946F0BD00002D
:1053000070B506000D008B7870221A420DD10D4B3E
:105310009978280001F0CEF8041E0DD02900300045
:10532000FFF7B6FA0400200070BD074A0749084895
:10533000FEF7E8FE0024F6E7064A04490448FEF7B3
:10534000E1FEF0E75C090020C2040000C880001004
:1053500000810010C3040000F0B5CE46474680B57A
:1053600083B001900C0090461D000A9B99460027CF
:1053700016E0184A18491948FEF7C4FE0026300006
:1053800003B00CBC90469946F0BD154A124913482B
:10539000FEF7B8FEF3E74A4613702378E4180137A6
:1053A000B84514DD6378052BE3D1E3789B079B0FA9
:1053B000AB42DED121000198FFF7A2FF061EE4D028
:1053C000A378DA09012AE6D10B9A1370E5E70126E2
:1053D000D5E7C0469C040000B48000100081001096
:1053E0009D04000070B57F260E40CD0972001D4B54
:1053F0009B185B193033DC78E407E40F2ED1194B8E
:105400009B185B193033DB785B0728D4164B186880
:105410000121494201F0A0FC7200124B9B185B195C
:105420003033DB78DB0708D40E4B9B185B19303325
:10543000DB785B0702D4012400E00024002C08D0B4
:10544000760008498E1975193035EB78042213431C
:10545000EB70054B186801F05FFC00E000242000B1
:1054600070BDC0465C090020B009002070B57F25E2
:105470000D40CC09154B18680121494201F06CFC24
:105480006A00134B9B181B193033DB78DB0708D4F9
:105490000F4B9B181B193033DB785B0713D40026A6
:1054A00000E00026002E08D06D0009494D192C1986
:1054B0003034E37804229343E370044B186801F01E
:1054C0002BFC300070BD0126ECE7C046B00900207F
:1054D0005C090020F0B5C64600B582B001937F2577
:1054E0000D40CE096F00174CE419A4193034E4784C
:1054F000E4071DD46F00134CE419A4193034E37889
:105500000127BC4667463B43E370019BFFF7E4F984
:10551000002813D16D000B4B5D19AE193036F378AE
:1055200001229343F370F37803329343F37005E061
:10553000054A06490648FEF7E5FD002002B004BC16
:105540009046F0BD5C0900200A050000D8800010DC
:105550000081001070B57F240C40CD0962000C4B17
:105560009B185B193033DB789B0700D570BDFFF7C4
:10557000CBF96300064CE41864193034E378022256
:105580001343E370E37801221343E370EEE7C04670
:105590005C09002070B57F240C40CD0962000C4BE3
:1055A0009B185B193033DB789B0700D470BDFFF785
:1055B000C1F96300064CE41864193034E378022220
:1055C0009343E370E378013A9343E370EEE7C04618
:1055D0005C0900207F230B40CA095B000349C918FE
:1055E00089183031C8788007C00F70475C090020E7
:1055F000F0B5C64600B582B004000D00002000F0F2
:1056000085FB2B7860221A40602A14D0402A19D0DA
:105610002B78DB06DB0ED9B2012900D1DAE05BB2D0
:10562000002B1DD0022900D11EE10026300002B05F
:1056300004BC9046F0BDCC4ACC49CD48FEF762FD93
:105640000026F3E7CB4B002B00D180E1180000F0DF
:105650005DFB2A000021200000E000BF0600E5E716
:10566000202A0AD0002A00D079E16B78092B00D9D2
:1056700077E19B00C04AD3589F462B790F2B00D966
:1056800067E1BE4AD318DB78BD4A002A05D0BD4A7F
:105690001278934212D39B1ADBB2002B00D05AE14E
:1056A0005A00D318DA00B8498918002900D154E10A
:1056B0002A002000FFF7F2FA0600B7E75A00D318D5
:1056C000DA00B24B19688918EFE7280000F024FBD4
:1056D000A9782000FFF772F8A84A137802210B433B
:1056E00013700126A2E7A54B5B786A460632137059
:1056F00001232900200000F0ADFA012696E7AF78DB
:105700009E4B5B78DBB2BB4205D09C4B5B78002B99
:1057100009D1002F13D1994B5F702900200000F0B0
:105720007DFA012682E72000FFF7D2F8934EB37886
:1057300098462000FFF76AFA4346B370E9E739005C
:105740002000FFF7B9FA061EE5D1914A874988483B
:10575000FEF7D8FC6AE729002000FFF781FB06006E
:1057600064E7AA78EB781B021343012B01D00026D3
:105770005CE7824A137808210B431370290020004C
:1057800000F04CFA012651E7AA78EB781B0213438C
:10579000012B01D0002649E7784A137808218B4372
:1057A00013702900200000F039FA01263EE7734B00
:1057B0001A785109920801230B4002210A40134331
:1057C0006A460632138002232900200000F042FAC4
:1057D00001262BE72B790F2B00D9DDE0674AD31880
:1057E000DB78674A002A05D0664A1278934229D3AB
:1057F0009B1ADBB2002B00D0D0E05A00D318DA009D
:1058000061498918002900D1CAE02A002000FFF769
:1058100045FA061E00D009E72B7860221A4200D014
:1058200004E76B780A3B012B00D9FFE6002000F06B
:105830006DFA6B780A2B0CD02900200000F0EEF9ED
:105840000126F3E65A00D318DA00504B196889187C
:10585000D8E76B469A1D00231370013329002000FE
:1058600000F0F8F90136E1E629797F230B40CE09F3
:105870007020084220D15B004048C3189B19DB7C94
:105880003F48002805D03F48007883421BD31B1AAD
:10589000DBB2002B1ED15800C318D8003A4E361880
:1058A000002A19D0002E00D17CE02A00310020000F
:1058B000FFF7F4F90600B9E6364A2C492C48FEF702
:1058C00021FC0026B2E65800C318D8002F4B1E68F2
:1058D0003618E5E70026E3E76B78012B12D0002BA2
:1058E00003D0032B0ED00026A0E62000FFF772FEA7
:1058F0006B469A1D108002232900200000F0AAF9AF
:10590000012693E6A878EA781202024304D1012B1B
:1059100019D02000FFF71EFE002E45D02A003100CE
:105920002000FFF7BBF9002000F0F0F9134A342300
:10593000D05CC007C60F00D078E62900200000F038
:105940006DF9013672E62000FFF724FEE4E7002639
:105950006CE600266AE6002668E6002666E6002673
:1059600064E6002662E6C0467F02000070800010F8
:105970000081001000000000088000105C09002079
:10598000D9410010B50F0020E88000102406002047
:10599000D302000033030000002647E6002645E658
:1059A000002643E6002641E601263FE630B585B0F5
:1059B00000F078FD002808D105B030BD01AC20789A
:1059C000FFF766F92279724B9A70724B1C68E26994
:1059D000EFF3108372B611680029FCD0BFF35F8F1C
:1059E000236201A9200001F05BF8E269236ABFF39A
:1059F0005F8F0021116083F310880028DCD001AB99
:105A00005B78082BE1D89B00634AD3589F4601ABD3
:105A10001878FFF73DF9614B002BD6D000E000BFAE
:105A2000D3E75B4B1A78012401210A431A70332211
:105A3000995CA1439954995C0420814399540132A3
:105A4000995CA1439954995C8143995401AB1878AE
:105A500002A9FFF7CDFD0028B7D101AC20780021C5
:105A6000FEF752FF20788021FEF74EFFADE701AB35
:105A700019797F220A40CC095000454B1B181B198D
:105A80003033D8780125A843D870D8780335A84397
:105A9000D870002A1DD052003D4B9A181219D37CA1
:105AA0003F4A002A05D03F4A1278934218D39B1AE6
:105AB000DBB2002B1BD15A00D318DA003A4B9B18EB
:105AC000002B14D01C6901A84279039B0078A047E1
:105AD0007BE701A84279039B007800F02BF974E77B
